S01C0000415454494E59313632375F544C4335393136314E2E73726563C9
S11300000C943C000C9459000C9459000C94590025
S11300100C9459000C9459000C9459000C945900F8
S11300200C94C5010C9459000C9459000C9459007B
S11300300C9459000C9459000C9459000C94DD0450
S11300400C9459000C9459000C9459000C945900C8
S11300500C9459000C9459000C9459000C945900B8
S11300600C9459000C9459000C9459000C945900A8
S11300700C9459000C94590011241FBECFEFCDBF2E
S1130080DFE3DEBF18E3A0E0B8E3E0E0FEE002C097
S113009005900D92AE32B107D9F728E3AEE2B8E38A
S11300A001C01D92AB36B207E1F70E949F000C9489
S11300B0FE060C9400000E945A0208950E945D04FA
S11300C00E94D9040E949A0489B1877F89B908954E
S11300D020E031E012C0932F982321F099B1986069
S11300E099B903C099B1977F99B9330F99B19160C8
S11300F099B999B19E7F99B92F5F283060F389B17E
S1130100877F89B9089589B1846089B989B18B7F62
S113011089B9089589B18D7F89B9089589B18260BB
S113012089B90895CF93C82F0E948E008C2F0E9406
S113013068000E9483000E948A00CF9108950E9463
S11301405B0010925C3810925D3810925E38109209
S11301505F3885E994E0A0E0B0E08093563890934E
S11301605738A0935838B093593810926138109288
S1130170623810926338109264380E94E30110923E
S1130180673810925438109255381092653810928E
S1130190663810925238109253381092693810927F
S11301A06A388091003880935A38809368388093F5
S11301B0603880935B3881B1806881B982E00E94A5
S11301C0FD010091613810916238209163383091BB
S11301D06438DC01CB01800F911FA21FB31FBC0147
S11301E0CD0196958795779567956093613870935F
S11301F0623880936338909364380E94B90521EA89
S113020037E643E75FE30E94470627E33AED44E21B
S113021052E40E941D050E948A056B017C016093D3
S113022002082AE030E040E050E00E94C8064B019A
S11302305C016093543870935538CB01770FAA0B47
S1130240BB0BC81AD90AEA0AFB0AC701B60124E69D
S113025030E040E050E00E94C8068B01072E000CFD
S1130260220B330BC01AD10AE20AF30ACB016AE06B
S113027070E00E94B40660936538709366380F2E60
S1130280F8EE4F2EF3E05F2E612C712CF02DC70198
S1130290B601A30192010E94C8068B01072E000C2F
S11302A0220B330BC01AD10AE20AF30ACB0164E62B
S11302B070E00E94B4066093523870935338C701BB
S11302C0B601A30192010E94C806209369383093B5
S11302D06A38F401E050F84C80810E94920081B1A8
S11302E0806181B981EE94E00197F1F700C00000CC
S11302F081B18F7E81B9E0916538F0916638E05024
S1130300F84C80810E94920081B1806281B981EEB3
S113031094E00197F1F700C0000081B18F7D81B9AD
S1130320E0915238F0915338E050F84C80810E94AB
S1130330920081B1806481B981EE94E00197F1F774
S113034000C0000081B18F7B81B9E0916938F091E0
S11303506A38E050F84C80810E94920081B1806834
S113036081B981EE94E00197F1F700C0000081B1FA
S11303708F7781B98BE9809367380E945E0081E4AE
S113038093E00197F1F7000019CF1F920F920FB677
S11303900F9211248F93EF93FF93E0E0FAE08385AB
S11303A08387FF91EF918F910F900FBE0F901F9055
S11303B01895E0E0F6E080E282838BE1808781E0BB
S11303C0808380E00895E0E0F6E0808181608083AE
S11303D00895E0E0F6E0848782858160828708954D
S11303E08091050681700895609110067091110640
S11303F0809112069091130608950E94E9010E94CB
S1130400F0018823E1F30E94F401E0E0F6E02581A5
S113041021602583089580E0089580E0089578940C
S113042080E0089580E008C0E82FF0E0E05FFB4F33
S11304309081986090838F5F8830B0F380E008C02B
S1130440E82FF0E0E05DFB4F9081986090838F5F30
S11304508830B0F380E008C0E82FF0E0E05BFB4FA9
S11304609081986090838F5F8830B0F30895E2E1C3
S1130470F4E08081887F846080838081877F8083AB
S11304800E94D901089584B1877F84B9E3E3F4E03D
S11304908081877F808385B18B7F85B984B18460B7
S11304A084B90E94130508950E94030508950E94CB
S11304B0560408950E94120281B18F7E81B980B1E1
S11304C0806180B981B18F7D81B980B1806280B94A
S11304D081B18F7B81B980B1806480B981B18F771C
S11304E081B980B1806880B989B18E7F89B988B1BA
S11304F0816088B989B1826089B988B1826088B91C
S113050089B18B7F89B988B1846088B989B1877FC3
S113051089B988B1886088B90E940D020E943702A7
S11305200E9443020E9454020E940F020E9401058D
S11305300E9457020E940B020895E0EAF8E08481C9
S113054088608483858181608583EEE2F8E380811D
S11305508E7F808313868EE00895EEE2F8E3808137
S11305608E7F8083138680E00895E0EAF8E084813A
S1130570836084830E94AD020895EEE2F8E38081F3
S113058088608083818190E0880F991F81608093C7
S1130590A70884E008950E94BD0208950E94BD0248
S11305A00895EEE2F8E38081886080838181880F7A
S11305B08093A70883E008950E94D1020895AEE2D3
S11305C0B8E38C91877F8C9382E01B968C931B9766
S11305D05096ED91FC9151975C968D919C915D970D
S11305E00995823019F0833021F006C00E94CE02B2
S11305F008950E94DC0208950E94B5020895E0EA7D
S1130600F8E084818B7F848384E00895E0EAF8E055
S113061084818B7F848383E00895E0EAF8E0848119
S1130620846084838481836084830E94AD020895FE
S1130630E0EAF8E084818460848388E0089580910E
S1130640A50884FF19C0AEE2B8E35296ED91FC917F
S113065053975E968D919C915F970995823019F01E
S1130660833021F006C00E94CE0208950E94DC026D
S113067008950E94B5020895EEE2F8E38081877F31
S11306808083A281B381CD010196828393838C916F
S11306908093A80884819581019784839583892B0D
S11306A011F083E0089585E00895CF93DF93EEE29F
S11306B0F8E38081877F808384819581019731F479
S11306C0E0EAF8E084818460848305C0E0EAF8E02D
S11306D084818B7F8483EEE2F8E3848195810197A2
S11306E084839583892BA9F0DF01C281D381E0EA59
S11306F0F8E08085888312968D919C9113970196DA
S113070012968D939C93139784818260848384E0F2
S113071026C0AEE2B8E31296ED91FC911397809156
S1130720A808808312968D919C9113970196129636
S11307308D939C9313978C9184608C931C96ED916C
S1130740FC911D9758968D919C91599709958250CB
S1130750823018F40E94180302C00E940D03DF9136
S1130760CF9108958091A50884FF19C0AEE2B8E343
S11307705296ED91FC9153975E968D919C915F9763
S11307800995823019F0833021F006C00E94CE0210
S113079008950E94DC0208950E94B5020895AEE215
S11307A0B8E38C9184608C931C96ED91FC911D9719
S11307B058968D919C9159970995833039F08430DE
S11307C041F0823049F40E94CE0208950E94DC0276
S11307D008950E941F0308950E94B5020895E0EA57
S11307E0F8E0858188608583AEE2B8E382E01B96F9
S11307F08C931B971E96ED91FC911F975A968D91A1
S11308009C915B970995823019F0833021F006C0E2
S11308100E94CE0208950E94DC0208950E949D0267
S11308200895E0EAF8E084818860848385818160AA
S11308308583EEE2F8E380818E7F808382E0838784
S11308408EE00895CF93DF93E0EAF8E08581806C31
S1130850858380912E3883FF07C08091A50884FF8B
S113086003C08FE0809338388091A50883FF03C0CC
S113087080E1809338388091A50882FF03C081E12C
S113088080933838CEE2D8E3EA85F0E0EE0FFF1F1C
S1130890E65FF74C0190F081E02D09958A87DF919E
S11308A0CF91089581E0089585E00895E0EAF8E0A5
S11308B08BE0868381EC8383089590912E3891FD9B
S11308C037C0EEE2F8E38183892F8E7F82609EE059
S11308D0928724EF31E020873187877F846080838B
S11308E082E594E084879587108E118E868797879A
S11308F0128E138E808B918B148E158E828B938B1C
S1130900168E178E84E594E0848B958B10A211A229
S1130910E0EAF8E08481886084838581816085834E
S11309208581806C85838381806C838380E00895D6
S113093081E008958091A50882FF07C0EEE2F8E304
S113094080818E7F808382E0838780912E3880FD32
S113095017C0EEE2F8E38D7F80838FEF8183A0EAF6
S1130960B8E015968C911597806C15968C93159715
S113097013968C9113978F7313968C938385089594
S113098081E0089590912E3890FD11C0EEE2F8E3D5
S113099091609083882321F081E08093383803C0EC
S11309A082E0809338380E94220480E0089581E038
S11309B0089580E00E94C20408951F920F920FB61A
S11309C00F9211242F933F934F935F936F937F93D1
S11309D08F939F93AF93BF93EF93FF930E9422044F
S11309E0FF91EF91BF91AF919F918F917F916F9103
S11309F05F914F913F912F910F900FBE0F901F90D9
S1130A00189580E00895E0E0FAE081E082871182A1
S1130A1081858E7F81878BED92E386A397A38DE0FA
S1130A20808380E00895E0E0F8E08DE695E080873B
S1130A30918780EC868380E008955058BB27AA27CD
S1130A400E9435050C940D060E94FF0538F00E94A3
S1130A50060620F039F49F3F19F426F40C94FC05A3
S1130A600EF4E095E7FB0C94F605E92F0E941E06B0
S1130A7058F3BA17620773078407950720F079F4CF
S1130A80A6F50C9440060EF4E0950B2EBA2FA02D7B
S1130A900B01B90190010C01CA01A0011124FF2727
S1130AA0591B99F0593F50F4503E68F11A16F04022
S1130AB0A22F232F342F4427585FF3CF4695379521
S1130AC02795A795F0405395C9F77EF41F16BA0BE6
S1130AD0620B730B840BBAF09150A1F0FF0FBB1F94
S1130AE0661F771F881FC2F70EC0BA0F621F731FDD
S1130AF0841F48F4879577956795B795F7959E3F3A
S1130B0008F0B0CF9395880F08F09927EE0F9795CA
S1130B10879508950E94260688F09F5798F0B92F6C
S1130B209927B751B0F0E1F0660F771F881F991F1E
S1130B301AF0BA95C9F714C0B13091F00E9440067A
S1130B40B1E008950C944006672F782F8827B85F8A
S1130B5039F0B93FCCF3869577956795B395D9F776
S1130B603EF490958095709561957F4F8F4F9F4F80
S1130B700895E89409C097FB3EF49095809570958C
S1130B8061957F4F8F4F9F4F9923A9F0F92F96E9D5
S1130B90BB279395F695879577956795B795F1114A
S1130BA0F8CFFAF4BB0F11F460FF1BC06F5F7F4FE7
S1130BB08F4F9F4F16C0882311F096E911C07723F9
S1130BC021F09EE8872F762F05C0662371F096E802
S1130BD0862F70E060E02AF09A95660F771F881FD1
S1130BE0DAF7880F9695879597F9089597F99F678F
S1130BF080E870E060E008959FEF80EC08950024A1
S1130C000A941616170618060906089500240A946D
S1130C1012161306140605060895092E0394000CF3
S1130C2011F4882352F0BB0F40F4BF2B11F460FF82
S1130C3004C06F5F7F4F8F4F9F4F089557FD9058AB
S1130C40440F551F59F05F3F71F04795880F97FB8C
S1130C50991F61F09F3F79F0879508951216130646
S1130C601406551FF2CF4695F1DF08C01616170675
S1130C701806991FF1CF86957105610508940895AA
S1130C80E894BB2766277727CB0197F908950E943C
S1130C905A060C940D060E94FF0538F00E940606C1
S1130CA020F0952311F00C94F6050C94FC05112406
S1130CB00C9441060E941E0670F3959FC1F3950F94
S1130CC050E0551F629FF001729FBB27F00DB11DCC
S1130CD0639FAA27F00DB11DAA1F649F6627B00D5C
S1130CE0A11D661F829F2227B00DA11D621F739F45
S1130CF0B00DA11D621F839FA00D611D221F749F53
S1130D003327A00D611D231F849F600D211D822F99
S1130D10762F6A2F11249F5750409AF0F1F08823C0
S1130D204AF0EE0FFF1FBB1F661F771F881F9150ED
S1130D305040A9F79E3F510580F00C94F6050C94A1
S1130D4041065F3FE4F3983ED4F386957795679523
S1130D50B795F795E7959F5FC1F7FE2B880F911D17
S1130D609695879597F9089597FB072E16F40094A6
S1130D7007D077FD09D00E94EA0607FC05D03EF4AF
S1130D80909581959F4F0895709561957F4F089533
S1130D90A1E21A2EAA1BBB1BFD010DC0AA1FBB1F7B
S1130DA0EE1FFF1FA217B307E407F50720F0A21BED
S1130DB0B30BE40BF50B661F771F881F991F1A945A
S1130DC069F760957095809590959B01AC01BD0184
S1130DD0CF010895AA1BBB1B51E107C0AA1FBB1F6B
S1130DE0A617B70710F0A61BB70B881F991F5A95B3
S1130DF0A9F780959095BC01CD010895F894FFCF93
S1130E00FC60DAF266B6BEE0FEE6AD02BD02D102D7
S1130E101F035503B203CE02DC02CB02B502FF026C
S1110E2006030D0318039D02DF02EF03110405
S9030000FC
